{
  "contractName": "OurContract",
  "abi": [
    {
      "inputs": [],
      "stateMutability": "nonpayable",
      "type": "constructor"
    },
    {
      "anonymous": false,
      "inputs": [
        {
          "indexed": true,
          "internalType": "address",
          "name": "owner",
          "type": "address"
        },
        {
          "indexed": true,
          "internalType": "address",
          "name": "approved",
          "type": "address"
        },
        {
          "indexed": true,
          "internalType": "uint256",
          "name": "tokenId",
          "type": "uint256"
        }
      ],
      "name": "Approval",
      "type": "event"
    },
    {
      "anonymous": false,
      "inputs": [
        {
          "indexed": true,
          "internalType": "address",
          "name": "owner",
          "type": "address"
        },
        {
          "indexed": true,
          "internalType": "address",
          "name": "operator",
          "type": "address"
        },
        {
          "indexed": false,
          "internalType": "bool",
          "name": "approved",
          "type": "bool"
        }
      ],
      "name": "ApprovalForAll",
      "type": "event"
    },
    {
      "anonymous": false,
      "inputs": [
        {
          "indexed": true,
          "internalType": "address",
          "name": "from",
          "type": "address"
        },
        {
          "indexed": true,
          "internalType": "address",
          "name": "to",
          "type": "address"
        },
        {
          "indexed": true,
          "internalType": "uint256",
          "name": "tokenId",
          "type": "uint256"
        }
      ],
      "name": "Transfer",
      "type": "event"
    },
    {
      "inputs": [
        {
          "internalType": "uint256",
          "name": "tokenId",
          "type": "uint256"
        }
      ],
      "name": "_burn",
      "outputs": [],
      "stateMutability": "nonpayable",
      "type": "function"
    },
    {
      "inputs": [
        {
          "internalType": "address",
          "name": "to",
          "type": "address"
        },
        {
          "internalType": "uint256",
          "name": "tokenId",
          "type": "uint256"
        }
      ],
      "name": "_safeMint",
      "outputs": [],
      "stateMutability": "nonpayable",
      "type": "function"
    },
    {
      "inputs": [
        {
          "internalType": "address",
          "name": "to",
          "type": "address"
        },
        {
          "internalType": "uint256",
          "name": "tokenId",
          "type": "uint256"
        }
      ],
      "name": "approve",
      "outputs": [],
      "stateMutability": "nonpayable",
      "type": "function"
    },
    {
      "inputs": [
        {
          "internalType": "address",
          "name": "owner",
          "type": "address"
        }
      ],
      "name": "balanceOf",
      "outputs": [
        {
          "internalType": "uint256",
          "name": "",
          "type": "uint256"
        }
      ],
      "stateMutability": "view",
      "type": "function",
      "constant": true
    },
    {
      "inputs": [
        {
          "internalType": "uint256",
          "name": "tokenId",
          "type": "uint256"
        }
      ],
      "name": "getApproved",
      "outputs": [
        {
          "internalType": "address",
          "name": "",
          "type": "address"
        }
      ],
      "stateMutability": "view",
      "type": "function",
      "constant": true
    },
    {
      "inputs": [
        {
          "internalType": "address",
          "name": "owner",
          "type": "address"
        },
        {
          "internalType": "address",
          "name": "operator",
          "type": "address"
        }
      ],
      "name": "isApprovedForAll",
      "outputs": [
        {
          "internalType": "bool",
          "name": "",
          "type": "bool"
        }
      ],
      "stateMutability": "view",
      "type": "function",
      "constant": true
    },
    {
      "inputs": [
        {
          "internalType": "uint256",
          "name": "tokenId",
          "type": "uint256"
        }
      ],
      "name": "ownerOf",
      "outputs": [
        {
          "internalType": "address",
          "name": "",
          "type": "address"
        }
      ],
      "stateMutability": "view",
      "type": "function",
      "constant": true
    },
    {
      "inputs": [
        {
          "internalType": "address",
          "name": "from",
          "type": "address"
        },
        {
          "internalType": "address",
          "name": "to",
          "type": "address"
        },
        {
          "internalType": "uint256",
          "name": "tokenId",
          "type": "uint256"
        }
      ],
      "name": "safeTransferFrom",
      "outputs": [],
      "stateMutability": "nonpayable",
      "type": "function"
    },
    {
      "inputs": [
        {
          "internalType": "address",
          "name": "from",
          "type": "address"
        },
        {
          "internalType": "address",
          "name": "to",
          "type": "address"
        },
        {
          "internalType": "uint256",
          "name": "tokenId",
          "type": "uint256"
        },
        {
          "internalType": "bytes",
          "name": "_data",
          "type": "bytes"
        }
      ],
      "name": "safeTransferFrom",
      "outputs": [],
      "stateMutability": "nonpayable",
      "type": "function"
    },
    {
      "inputs": [
        {
          "internalType": "address",
          "name": "operator",
          "type": "address"
        },
        {
          "internalType": "bool",
          "name": "approved",
          "type": "bool"
        }
      ],
      "name": "setApprovalForAll",
      "outputs": [],
      "stateMutability": "nonpayable",
      "type": "function"
    },
    {
      "inputs": [
        {
          "internalType": "bytes4",
          "name": "interfaceId",
          "type": "bytes4"
        }
      ],
      "name": "supportsInterface",
      "outputs": [
        {
          "internalType": "bool",
          "name": "",
          "type": "bool"
        }
      ],
      "stateMutability": "view",
      "type": "function",
      "constant": true
    },
    {
      "inputs": [
        {
          "internalType": "address",
          "name": "from",
          "type": "address"
        },
        {
          "internalType": "address",
          "name": "to",
          "type": "address"
        },
        {
          "internalType": "uint256",
          "name": "tokenId",
          "type": "uint256"
        }
      ],
      "name": "transferFrom",
      "outputs": [],
      "stateMutability": "nonpayable",
      "type": "function"
    },
    {
      "inputs": [
        {
          "internalType": "address",
          "name": "erc",
          "type": "address"
        }
      ],
      "name": "setERC721ad",
      "outputs": [],
      "stateMutability": "nonpayable",
      "type": "function"
    },
    {
      "inputs": [
        {
          "internalType": "address",
          "name": "newOwner",
          "type": "address"
        },
        {
          "internalType": "uint256",
          "name": "tokenID",
          "type": "uint256"
        }
      ],
      "name": "registerBreeder",
      "outputs": [],
      "stateMutability": "nonpayable",
      "type": "function"
    },
    {
      "inputs": [
        {
          "internalType": "address",
          "name": "owner",
          "type": "address"
        },
        {
          "internalType": "uint256",
          "name": "_age",
          "type": "uint256"
        },
        {
          "internalType": "string",
          "name": "_name",
          "type": "string"
        },
        {
          "internalType": "uint256",
          "name": "_time",
          "type": "uint256"
        },
        {
          "internalType": "bool",
          "name": "cool",
          "type": "bool"
        },
        {
          "internalType": "bool",
          "name": "_gender",
          "type": "bool"
        }
      ],
      "name": "declareAnimal",
      "outputs": [],
      "stateMutability": "nonpayable",
      "type": "function"
    },
    {
      "inputs": [
        {
          "internalType": "address",
          "name": "owner",
          "type": "address"
        },
        {
          "components": [
            {
              "internalType": "uint256",
              "name": "age",
              "type": "uint256"
            },
            {
              "internalType": "string",
              "name": "name",
              "type": "string"
            },
            {
              "internalType": "uint256",
              "name": "under_water_time",
              "type": "uint256"
            },
            {
              "internalType": "bool",
              "name": "friendly",
              "type": "bool"
            },
            {
              "internalType": "bool",
              "name": "gender",
              "type": "bool"
            }
          ],
          "internalType": "struct OurContract.waterdoggos",
          "name": "doggo",
          "type": "tuple"
        },
        {
          "internalType": "uint256",
          "name": "tokenID",
          "type": "uint256"
        }
      ],
      "name": "deadAnimal",
      "outputs": [],
      "stateMutability": "nonpayable",
      "type": "function"
    }
  ],
  "bytecode": "0x60806040523480156200001157600080fd5b506200002a6301ffc9a760e01b6200008960201b60201c565b620000426380ac58cd60e01b6200008960201b60201c565b33600560006101000a81548173ffffffffffffffffffffffffffffffffffffffff021916908373ffffffffffffffffffffffffffffffffffffffff160217905550620001d6565b63ffffffff60e01b817bffffffffffffffffffffffffffffffffffffffffffffffffffffffff19161415620000f5576040517f08c379a0000000000000000000000000000000000000000000000000000000008152600401620000ec90620001a3565b60405180910390fd5b6001600080837bffffffffffffffffffffffffffffffffffffffffffffffffffffffff19167bffffffffffffffffffffffffffffffffffffffffffffffffffffffff1916815260200190815260200160002060006101000a81548160ff02191690831515021790555050565b600062000170601c83620001c5565b91507f4552433136353a20696e76616c696420696e74657266616365206964000000006000830152602082019050919050565b60006020820190508181036000830152620001be8162000161565b9050919050565b600082825260208201905092915050565b612bbe80620001e66000396000f3fe608060405234801561001057600080fd5b50600436106101005760003560e01c80639b1f9e7411610097578063b88d4fde11610066578063b88d4fde146102a5578063ceb97d52146102c1578063d3f16654146102dd578063e985e9c5146102f957610100565b80639b1f9e74146102355780639d90305914610251578063a22cb4651461026d578063b3e1c7181461028957610100565b806342842e0e116100d357806342842e0e1461019d5780636352211e146101b957806370a08231146101e95780638e9c6ce41461021957610100565b806301ffc9a714610105578063081812fc14610135578063095ea7b31461016557806323b872dd14610181575b600080fd5b61011f600480360361011a9190810190612024565b610329565b60405161012c9190612747565b60405180910390f35b61014f600480360361014a9190810190612076565b610390565b60405161015c91906126b7565b60405180910390f35b61017f600480360361017a9190810190611f47565b610415565b005b61019b60048036036101969190810190611dda565b61052d565b005b6101b760048036036101b29190810190611dda565b61058d565b005b6101d360048036036101ce9190810190612076565b6105ad565b6040516101e091906126b7565b60405180910390f35b61020360048036036101fe9190810190611d4c565b61065f565b6040516102109190612944565b60405180910390f35b610233600480360361022e9190810190611f83565b61071e565b005b61024f600480360361024a9190810190612076565b6108c7565b005b61026b60048036036102669190810190611d4c565b6108dc565b005b61028760048036036102829190810190611ea4565b61097a565b005b6102a3600480360361029e9190810190611f47565b610afb565b005b6102bf60048036036102ba9190810190611e29565b610b19565b005b6102db60048036036102d69190810190611f47565b610b7b565b005b6102f760048036036102f29190810190611ee0565b610d6c565b005b610313600480360361030e9190810190611d9e565b610e47565b6040516103209190612747565b60405180910390f35b6000806000837bffffffffffffffffffffffffffffffffffffffffffffffffffffffff19167bffffffffffffffffffffffffffffffffffffffffffffffffffffffff1916815260200190815260200160002060009054906101000a900460ff169050919050565b600061039b82610edb565b6103da576040517f08c379a00000000000000000000000000000000000000000000000000000000081526004016103d1906128a4565b60405180910390fd5b6002600083815260200190815260200160002060009054906101000a900473ffffffffffffffffffffffffffffffffffffffff169050919050565b6000610420826105ad565b90508073ffffffffffffffffffffffffffffffffffffffff168373ffffffffffffffffffffffffffffffffffffffff161415610491576040517f08c379a0000000000000000000000000000000000000000000000000000000008152600401610488906128e4565b60405180910390fd5b8073ffffffffffffffffffffffffffffffffffffffff166104b0610f4d565b73ffffffffffffffffffffffffffffffffffffffff1614806104df57506104de816104d9610f4d565b610e47565b5b61051e576040517f08c379a000000000000000000000000000000000000000000000000000000000815260040161051590612824565b60405180910390fd5b6105288383610f55565b505050565b61053e610538610f4d565b8261100e565b61057d576040517f08c379a000000000000000000000000000000000000000000000000000000000815260040161057490612904565b60405180910390fd5b6105888383836110ec565b505050565b6105a883838360405180602001604052806000815250610b19565b505050565b6000806001600084815260200190815260200160002060009054906101000a900473ffffffffffffffffffffffffffffffffffffffff169050600073ffffffffffffffffffffffffffffffffffffffff168173ffffffffffffffffffffffffffffffffffffffff161415610656576040517f08c379a000000000000000000000000000000000000000000000000000000000815260040161064d90612864565b60405180910390fd5b80915050919050565b60008073ffffffffffffffffffffffffffffffffffffffff168273ffffffffffffffffffffffffffffffffffffffff1614156106d0576040517f08c379a00000000000000000000000000000000000000000000000000000000081526004016106c790612844565b60405180910390fd5b610717600360008473ffffffffffffffffffffffffffffffffffffffff1673ffffffffffffffffffffffffffffffffffffffff168152602001908152602001600020611328565b9050919050565b3373ffffffffffffffffffffffffffffffffffffffff16600560009054906101000a900473ffffffffffffffffffffffffffffffffffffffff1673ffffffffffffffffffffffffffffffffffffffff161461077857600080fd5b610780611a5a565b6040518060a001604052808781526020018681526020018581526020018415158152602001831515815250905060011515600760008973ffffffffffffffffffffffffffffffffffffffff1673ffffffffffffffffffffffffffffffffffffffff16815260200190815260200160002060009054906101000a900460ff1615151461080a57600080fd5b80600860008973ffffffffffffffffffffffffffffffffffffffff1673ffffffffffffffffffffffffffffffffffffffff168152602001908152602001600020600082015181600001556020820151816001019080519060200190610870929190611a8d565b506040820151816002015560608201518160030160006101000a81548160ff02191690831515021790555060808201518160030160016101000a81548160ff02191690831515021790555090505050505050505050565b6108d96108d3826105ad565b82611336565b50565b600560009054906101000a900473ffffffffffffffffffffffffffffffffffffffff1673ffffffffffffffffffffffffffffffffffffffff163373ffffffffffffffffffffffffffffffffffffffff161461093657600080fd5b80600660006101000a81548173ffffffffffffffffffffffffffffffffffffffff021916908373ffffffffffffffffffffffffffffffffffffffff16021790555050565b610982610f4d565b73ffffffffffffffffffffffffffffffffffffffff168273ffffffffffffffffffffffffffffffffffffffff1614156109f0576040517f08c379a00000000000000000000000000000000000000000000000000000000081526004016109e7906127e4565b60405180910390fd5b80600460006109fd610f4d565b73ffffffffffffffffffffffffffffffffffffffff1673ffffffffffffffffffffffffffffffffffffffff16815260200190815260200160002060008473ffffffffffffffffffffffffffffffffffffffff1673ffffffffffffffffffffffffffffffffffffffff16815260200190815260200160002060006101000a81548160ff0219169083151502179055508173ffffffffffffffffffffffffffffffffffffffff16610aaa610f4d565b73ffffffffffffffffffffffffffffffffffffffff167f17307eab39ab6107e8899845ad3d59bd9653f200f220920489ca2b5937696c3183604051610aef9190612747565b60405180910390a35050565b610b158282604051806020016040528060008152506114bd565b5050565b610b2a610b24610f4d565b8361100e565b610b69576040517f08c379a0000000000000000000000000000000000000000000000000000000008152600401610b6090612904565b60405180910390fd5b610b7584848484611518565b50505050565b3373ffffffffffffffffffffffffffffffffffffffff16600560009054906101000a900473ffffffffffffffffffffffffffffffffffffffff1673ffffffffffffffffffffffffffffffffffffffff1614610bd557600080fd5b6001600760008473ffffffffffffffffffffffffffffffffffffffff1673ffffffffffffffffffffffffffffffffffffffff16815260200190815260200160002060006101000a81548160ff021916908315150217905550600660009054906101000a900473ffffffffffffffffffffffffffffffffffffffff1673ffffffffffffffffffffffffffffffffffffffff16636352211e826040518263ffffffff1660e01b8152600401610c889190612944565b60206040518083038186803b158015610ca057600080fd5b505afa158015610cb4573d6000803e3d6000fd5b505050506040513d601f19601f82011682018060405250610cd89190810190611d75565b50600660009054906101000a900473ffffffffffffffffffffffffffffffffffffffff1673ffffffffffffffffffffffffffffffffffffffff1663b3e1c71883836040518363ffffffff1660e01b8152600401610d3692919061271e565b600060405180830381600087803b158015610d5057600080fd5b505af1158015610d64573d6000803e3d6000fd5b505050505050565b8273ffffffffffffffffffffffffffffffffffffffff163373ffffffffffffffffffffffffffffffffffffffff1614610da457600080fd5b600f826000015111610db557600080fd5b600660009054906101000a900473ffffffffffffffffffffffffffffffffffffffff1673ffffffffffffffffffffffffffffffffffffffff16639b1f9e74826040518263ffffffff1660e01b8152600401610e109190612944565b600060405180830381600087803b158015610e2a57600080fd5b505af1158015610e3e573d6000803e3d6000fd5b50505050505050565b6000600460008473ffffffffffffffffffffffffffffffffffffffff1673ffffffffffffffffffffffffffffffffffffffff16815260200190815260200160002060008373ffffffffffffffffffffffffffffffffffffffff1673ffffffffffffffffffffffffffffffffffffffff16815260200190815260200160002060009054906101000a900460ff16905092915050565b6000806001600084815260200190815260200160002060009054906101000a900473ffffffffffffffffffffffffffffffffffffffff169050600073ffffffffffffffffffffffffffffffffffffffff168173ffffffffffffffffffffffffffffffffffffffff161415915050919050565b600033905090565b816002600083815260200190815260200160002060006101000a81548173ffffffffffffffffffffffffffffffffffffffff021916908373ffffffffffffffffffffffffffffffffffffffff160217905550808273ffffffffffffffffffffffffffffffffffffffff16610fc8836105ad565b73ffffffffffffffffffffffffffffffffffffffff167f8c5be1e5ebec7d5bd14f71427d1e84f3dd0314c0f7b2291e5b200ac8c7c3b92560405160405180910390a45050565b600061101982610edb565b611058576040517f08c379a000000000000000000000000000000000000000000000000000000000815260040161104f90612804565b60405180910390fd5b6000611063836105ad565b90508073ffffffffffffffffffffffffffffffffffffffff168473ffffffffffffffffffffffffffffffffffffffff1614806110d257508373ffffffffffffffffffffffffffffffffffffffff166110ba84610390565b73ffffffffffffffffffffffffffffffffffffffff16145b806110e357506110e28185610e47565b5b91505092915050565b8273ffffffffffffffffffffffffffffffffffffffff1661110c826105ad565b73ffffffffffffffffffffffffffffffffffffffff1614611162576040517f08c379a0000000000000000000000000000000000000000000000000000000008152600401611159906128c4565b60405180910390fd5b600073ffffffffffffffffffffffffffffffffffffffff168273ffffffffffffffffffffffffffffffffffffffff1614156111d2576040517f08c379a00000000000000000000000000000000000000000000000000000000081526004016111c9906127c4565b60405180910390fd5b6111dd838383611574565b6111e8600082610f55565b61122f600360008573ffffffffffffffffffffffffffffffffffffffff1673ffffffffffffffffffffffffffffffffffffffff168152602001908152602001600020611579565b611276600360008473ffffffffffffffffffffffffffffffffffffffff1673ffffffffffffffffffffffffffffffffffffffff16815260200190815260200160002061159c565b816001600083815260200190815260200160002060006101000a81548173ffffffffffffffffffffffffffffffffffffffff021916908373ffffffffffffffffffffffffffffffffffffffff160217905550808273ffffffffffffffffffffffffffffffffffffffff168473ffffffffffffffffffffffffffffffffffffffff167fddf252ad1be2c89b69c2b068fc378daa952ba7f163c4a11628f55a4df523b3ef60405160405180910390a4505050565b600081600001549050919050565b8173ffffffffffffffffffffffffffffffffffffffff16611356826105ad565b73ffffffffffffffffffffffffffffffffffffffff16146113ac576040517f08c379a00000000000000000000000000000000000000000000000000000000081526004016113a390612924565b60405180910390fd5b6113b882600083611574565b6113c3600082610f55565b61140a600360008473ffffffffffffffffffffffffffffffffffffffff1673ffffffffffffffffffffffffffffffffffffffff168152602001908152602001600020611579565b60006001600083815260200190815260200160002060006101000a81548173ffffffffffffffffffffffffffffffffffffffff021916908373ffffffffffffffffffffffffffffffffffffffff16021790555080600073ffffffffffffffffffffffffffffffffffffffff168373ffffffffffffffffffffffffffffffffffffffff167fddf252ad1be2c89b69c2b068fc378daa952ba7f163c4a11628f55a4df523b3ef60405160405180910390a45050565b6114c783836115b2565b6114d46000848484611770565b611513576040517f08c379a000000000000000000000000000000000000000000000000000000000815260040161150a90612784565b60405180910390fd5b505050565b6115238484846110ec565b61152f84848484611770565b61156e576040517f08c379a000000000000000000000000000000000000000000000000000000000815260040161156590612784565b60405180910390fd5b50505050565b505050565b6115916001826000015461196a90919063ffffffff16565b816000018190555050565b6001816000016000828254019250508190555050565b600073ffffffffffffffffffffffffffffffffffffffff168273ffffffffffffffffffffffffffffffffffffffff161415611622576040517f08c379a000000000000000000000000000000000000000000000000000000000815260040161161990612884565b60405180910390fd5b61162b81610edb565b1561166b576040517f08c379a0000000000000000000000000000000000000000000000000000000008152600401611662906127a4565b60405180910390fd5b61167760008383611574565b816001600083815260200190815260200160002060006101000a81548173ffffffffffffffffffffffffffffffffffffffff021916908373ffffffffffffffffffffffffffffffffffffffff160217905550611710600360008473ffffffffffffffffffffffffffffffffffffffff1673ffffffffffffffffffffffffffffffffffffffff16815260200190815260200160002061159c565b808273ffffffffffffffffffffffffffffffffffffffff16600073ffffffffffffffffffffffffffffffffffffffff167fddf252ad1be2c89b69c2b068fc378daa952ba7f163c4a11628f55a4df523b3ef60405160405180910390a45050565b60006117918473ffffffffffffffffffffffffffffffffffffffff166119b4565b61179e5760019050611962565b600060608573ffffffffffffffffffffffffffffffffffffffff168673ffffffffffffffffffffffffffffffffffffffff1663150b7a02905060e01b6117e2610f4d565b8988886040516024016117f894939291906126d2565b604051602081830303815290604052907bffffffffffffffffffffffffffffffffffffffffffffffffffffffff19166020820180517bffffffffffffffffffffffffffffffffffffffffffffffffffffffff838183161783525050505060405161186291906126a0565b6000604051808303816000865af19150503d806000811461189f576040519150601f19603f3d011682016040523d82523d6000602084013e6118a4565b606091505b5091509150816118fc576000815111156118c15780518082602001fd5b6040517f08c379a00000000000000000000000000000000000000000000000000000000081526004016118f390612784565b60405180910390fd5b600081806020019051611912919081019061204d565b905063150b7a0260e01b7bffffffffffffffffffffffffffffffffffffffffffffffffffffffff1916817bffffffffffffffffffffffffffffffffffffffffffffffffffffffff19161493505050505b949350505050565b60006119ac83836040518060400160405280601e81526020017f536166654d6174683a207375627472616374696f6e206f766572666c6f7700008152506119ff565b905092915050565b60008060007fc5d2460186f7233c927e7db2dcc703c0e500b653ca82273b7bfad8045d85a47060001b9050833f91508082141580156119f657506000801b8214155b92505050919050565b6000838311158290611a47576040517f08c379a0000000000000000000000000000000000000000000000000000000008152600401611a3e9190612762565b60405180910390fd5b5060008385039050809150509392505050565b6040518060a001604052806000815260200160608152602001600081526020016000151581526020016000151581525090565b828054600181600116156101000203166002900490600052602060002090601f016020900481019282601f10611ace57805160ff1916838001178555611afc565b82800160010185558215611afc579182015b82811115611afb578251825591602001919060010190611ae0565b5b509050611b099190611b0d565b5090565b611b2f91905b80821115611b2b576000816000905550600101611b13565b5090565b90565b600081359050611b4181612b2c565b92915050565b600081519050611b5681612b2c565b92915050565b600081359050611b6b81612b43565b92915050565b600081359050611b8081612b5a565b92915050565b600081519050611b9581612b5a565b92915050565b600082601f830112611bac57600080fd5b8135611bbf611bba8261298c565b61295f565b91508082526020830160208301858383011115611bdb57600080fd5b611be6838284612ad9565b50505092915050565b600082601f830112611c0057600080fd5b8135611c13611c0e826129b8565b61295f565b91508082526020830160208301858383011115611c2f57600080fd5b611c3a838284612ad9565b50505092915050565b600082601f830112611c5457600080fd5b8135611c67611c62826129e4565b61295f565b91508082526020830160208301858383011115611c8357600080fd5b611c8e838284612ad9565b50505092915050565b600060a08284031215611ca957600080fd5b611cb360a061295f565b90506000611cc384828501611d37565b600083015250602082013567ffffffffffffffff811115611ce357600080fd5b611cef84828501611bef565b6020830152506040611d0384828501611d37565b6040830152506060611d1784828501611b5c565b6060830152506080611d2b84828501611b5c565b60808301525092915050565b600081359050611d4681612b71565b92915050565b600060208284031215611d5e57600080fd5b6000611d6c84828501611b32565b91505092915050565b600060208284031215611d8757600080fd5b6000611d9584828501611b47565b91505092915050565b60008060408385031215611db157600080fd5b6000611dbf85828601611b32565b9250506020611dd085828601611b32565b9150509250929050565b600080600060608486031215611def57600080fd5b6000611dfd86828701611b32565b9350506020611e0e86828701611b32565b9250506040611e1f86828701611d37565b9150509250925092565b60008060008060808587031215611e3f57600080fd5b6000611e4d87828801611b32565b9450506020611e5e87828801611b32565b9350506040611e6f87828801611d37565b925050606085013567ffffffffffffffff811115611e8c57600080fd5b611e9887828801611b9b565b91505092959194509250565b60008060408385031215611eb757600080fd5b6000611ec585828601611b32565b9250506020611ed685828601611b5c565b9150509250929050565b600080600060608486031215611ef557600080fd5b6000611f0386828701611b32565b935050602084013567ffffffffffffffff811115611f2057600080fd5b611f2c86828701611c97565b9250506040611f3d86828701611d37565b9150509250925092565b60008060408385031215611f5a57600080fd5b6000611f6885828601611b32565b9250506020611f7985828601611d37565b9150509250929050565b60008060008060008060c08789031215611f9c57600080fd5b6000611faa89828a01611b32565b9650506020611fbb89828a01611d37565b955050604087013567ffffffffffffffff811115611fd857600080fd5b611fe489828a01611c43565b9450506060611ff589828a01611d37565b935050608061200689828a01611b5c565b92505060a061201789828a01611b5c565b9150509295509295509295565b60006020828403121561203657600080fd5b600061204484828501611b71565b91505092915050565b60006020828403121561205f57600080fd5b600061206d84828501611b86565b91505092915050565b60006020828403121561208857600080fd5b600061209684828501611d37565b91505092915050565b6120a881612a65565b82525050565b6120b781612a53565b82525050565b6120c681612a77565b82525050565b60006120d782612a10565b6120e18185612a26565b93506120f1818560208601612ae8565b6120fa81612b1b565b840191505092915050565b600061211082612a10565b61211a8185612a37565b935061212a818560208601612ae8565b80840191505092915050565b600061214182612a1b565b61214b8185612a42565b935061215b818560208601612ae8565b61216481612b1b565b840191505092915050565b600061217c603283612a42565b91507f4552433732313a207472616e7366657220746f206e6f6e20455243373231526560008301527f63656976657220696d706c656d656e74657200000000000000000000000000006020830152604082019050919050565b60006121e2601c83612a42565b91507f4552433732313a20746f6b656e20616c7265616479206d696e746564000000006000830152602082019050919050565b6000612222602483612a42565b91507f4552433732313a207472616e7366657220746f20746865207a65726f2061646460008301527f72657373000000000000000000000000000000000000000000000000000000006020830152604082019050919050565b6000612288601983612a42565b91507f4552433732313a20617070726f766520746f2063616c6c6572000000000000006000830152602082019050919050565b60006122c8602c83612a42565b91507f4552433732313a206f70657261746f7220717565727920666f72206e6f6e657860008301527f697374656e7420746f6b656e00000000000000000000000000000000000000006020830152604082019050919050565b600061232e603883612a42565b91507f4552433732313a20617070726f76652063616c6c6572206973206e6f74206f7760008301527f6e6572206e6f7220617070726f76656420666f7220616c6c00000000000000006020830152604082019050919050565b6000612394602a83612a42565b91507f4552433732313a2062616c616e636520717565727920666f7220746865207a6560008301527f726f2061646472657373000000000000000000000000000000000000000000006020830152604082019050919050565b60006123fa602983612a42565b91507f4552433732313a206f776e657220717565727920666f72206e6f6e657869737460008301527f656e7420746f6b656e00000000000000000000000000000000000000000000006020830152604082019050919050565b6000612460602083612a42565b91507f4552433732313a206d696e7420746f20746865207a65726f20616464726573736000830152602082019050919050565b60006124a0602c83612a42565b91507f4552433732313a20617070726f76656420717565727920666f72206e6f6e657860008301527f697374656e7420746f6b656e00000000000000000000000000000000000000006020830152604082019050919050565b6000612506602983612a42565b91507f4552433732313a207472616e73666572206f6620746f6b656e2074686174206960008301527f73206e6f74206f776e00000000000000000000000000000000000000000000006020830152604082019050919050565b600061256c602183612a42565b91507f4552433732313a20617070726f76616c20746f2063757272656e74206f776e6560008301527f72000000000000000000000000000000000000000000000000000000000000006020830152604082019050919050565b60006125d2603183612a42565b91507f4552433732313a207472616e736665722063616c6c6572206973206e6f74206f60008301527f776e6572206e6f7220617070726f7665640000000000000000000000000000006020830152604082019050919050565b6000612638602583612a42565b91507f4552433732313a206275726e206f6620746f6b656e2074686174206973206e6f60008301527f74206f776e0000000000000000000000000000000000000000000000000000006020830152604082019050919050565b61269a81612acf565b82525050565b60006126ac8284612105565b915081905092915050565b60006020820190506126cc60008301846120ae565b92915050565b60006080820190506126e7600083018761209f565b6126f460208301866120ae565b6127016040830185612691565b818103606083015261271381846120cc565b905095945050505050565b600060408201905061273360008301856120ae565b6127406020830184612691565b9392505050565b600060208201905061275c60008301846120bd565b92915050565b6000602082019050818103600083015261277c8184612136565b905092915050565b6000602082019050818103600083015261279d8161216f565b9050919050565b600060208201905081810360008301526127bd816121d5565b9050919050565b600060208201905081810360008301526127dd81612215565b9050919050565b600060208201905081810360008301526127fd8161227b565b9050919050565b6000602082019050818103600083015261281d816122bb565b9050919050565b6000602082019050818103600083015261283d81612321565b9050919050565b6000602082019050818103600083015261285d81612387565b9050919050565b6000602082019050818103600083015261287d816123ed565b9050919050565b6000602082019050818103600083015261289d81612453565b9050919050565b600060208201905081810360008301526128bd81612493565b9050919050565b600060208201905081810360008301526128dd816124f9565b9050919050565b600060208201905081810360008301526128fd8161255f565b9050919050565b6000602082019050818103600083015261291d816125c5565b9050919050565b6000602082019050818103600083015261293d8161262b565b9050919050565b60006020820190506129596000830184612691565b92915050565b6000604051905081810181811067ffffffffffffffff8211171561298257600080fd5b8060405250919050565b600067ffffffffffffffff8211156129a357600080fd5b601f19601f8301169050602081019050919050565b600067ffffffffffffffff8211156129cf57600080fd5b601f19601f8301169050602081019050919050565b600067ffffffffffffffff8211156129fb57600080fd5b601f19601f8301169050602081019050919050565b600081519050919050565b600081519050919050565b600082825260208201905092915050565b600081905092915050565b600082825260208201905092915050565b6000612a5e82612aaf565b9050919050565b6000612a7082612aaf565b9050919050565b60008115159050919050565b60007fffffffff0000000000000000000000000000000000000000000000000000000082169050919050565b600073ffffffffffffffffffffffffffffffffffffffff82169050919050565b6000819050919050565b82818337600083830152505050565b60005b83811015612b06578082015181840152602081019050612aeb565b83811115612b15576000848401525b50505050565b6000601f19601f8301169050919050565b612b3581612a53565b8114612b4057600080fd5b50565b612b4c81612a77565b8114612b5757600080fd5b50565b612b6381612a83565b8114612b6e57600080fd5b50565b612b7a81612acf565b8114612b8557600080fd5b5056fea2646970667358221220071164aedea5717dc1f4003050da1c3ed0748e57f8b219c5278d3afe4473eed664736f6c63430006000033",
  "source": "pragma solidity ^0.6.0;\r\npragma experimental ABIEncoderV2;\r\nimport \"./Context.sol\";\r\nimport \"./IERC721.sol\";\r\nimport \"./IERC721Receiver.sol\";\r\nimport \"./SafeMath.sol\";\r\nimport \"./Address.sol\";\r\nimport \"./Counters.sol\";\r\nimport \"./ERC165.sol\";\r\nimport \"./ERC721.sol\";\r\ncontract OurContract is ERC721\r\n{\r\n    struct waterdoggos\r\n    {\r\n        uint age;\r\n        string name;\r\n        uint under_water_time;\r\n        bool friendly;\r\n        bool gender;\r\n    }\r\n    address Bigboss;\r\n    address ERC721ad;\r\n    //Mapping form owner address to bool \r\n    mapping(address => bool) private _Breeder;\r\n    mapping(address => waterdoggos) Yourdoggo;\r\n    constructor () public {\r\n        Bigboss = msg.sender;\r\n    }\r\n    function setERC721ad(address erc) public\r\n    {\r\n        require(msg.sender == Bigboss);\r\n        ERC721ad = erc;\r\n    }\r\n    //We'll put most of our work here in this part of the contract \r\n    function registerBreeder(address newOwner, uint tokenID) public{\r\n        require(Bigboss == msg.sender);\r\n        _Breeder[newOwner] = true;\r\n        ERC721(ERC721ad).ownerOf(tokenID);\r\n        ERC721(ERC721ad)._safeMint(newOwner, tokenID);\r\n    }\r\n\r\n    //Let's create our animal type \r\n    function declareAnimal (address owner, uint _age, string memory _name, uint _time,bool cool, bool _gender) public{\r\n        require(Bigboss==msg.sender);\r\n        //waterdoggos memory age = _age;\r\n        waterdoggos memory yourdoggo = waterdoggos({\r\n            age : _age,\r\n            name : _name,\r\n            under_water_time : _time,\r\n            friendly : cool,\r\n            gender : _gender\r\n        }\r\n        );\r\n        require(_Breeder[owner]==true);\r\n        Yourdoggo[owner] = yourdoggo;\r\n    }\r\n\r\n    //What if one of them died ?\r\n    function deadAnimal(address owner, waterdoggos memory doggo, uint tokenID) public \r\n    {\r\n        require(msg.sender == owner);\r\n        require(doggo.age>15);\r\n        ERC721(ERC721ad)._burn(tokenID);\r\n    }\r\n\r\n}",
  "sourcePath": "C:\\Users\\ronan\\Documents\\ing4\\semestre 2\\Blockchaineprogra\\TD6_Block_Pro\\contracts\\OurContract.sol",
  "compiler": {
    "name": "solc",
    "version": "0.6.0+commit.26b70077.Emscripten.clang"
  },
  "schemaVersion": "3.0.23",
  "updatedAt": "2020-03-08T21:54:41.256Z",
  "networkType": "ethereum",
  "devdoc": {
    "methods": {
      "_burn(uint256)": {
        "details": "Internal function to burn a specific token. Reverts if the token does not exist.",
        "params": {
          "tokenId": "uint256 ID of the token being burned"
        }
      },
      "_safeMint(address,uint256)": {
        "details": "Internal function to safely mint a new token. Reverts if the given token ID already exists. If the target address is a contract, it must implement `onERC721Received`, which is called upon a safe transfer, and return the magic value `bytes4(keccak256(\"onERC721Received(address,address,uint256,bytes)\"))`; otherwise, the transfer is reverted.",
        "params": {
          "to": "The address that will own the minted token",
          "tokenId": "uint256 ID of the token to be minted"
        }
      },
      "approve(address,uint256)": {
        "details": "Approves another address to transfer the given token ID The zero address indicates there is no approved address. There can only be one approved address per token at a given time. Can only be called by the token owner or an approved operator.",
        "params": {
          "to": "address to be approved for the given token ID",
          "tokenId": "uint256 ID of the token to be approved"
        }
      },
      "balanceOf(address)": {
        "details": "Gets the balance of the specified address.",
        "params": {
          "owner": "address to query the balance of"
        },
        "returns": {
          "_0": "uint256 representing the amount owned by the passed address"
        }
      },
      "getApproved(uint256)": {
        "details": "Gets the approved address for a token ID, or zero if no address set Reverts if the token ID does not exist.",
        "params": {
          "tokenId": "uint256 ID of the token to query the approval of"
        },
        "returns": {
          "_0": "address currently approved for the given token ID"
        }
      },
      "isApprovedForAll(address,address)": {
        "details": "Tells whether an operator is approved by a given owner.",
        "params": {
          "operator": "operator address which you want to query the approval of",
          "owner": "owner address which you want to query the approval of"
        },
        "returns": {
          "_0": "bool whether the given operator is approved by the given owner"
        }
      },
      "ownerOf(uint256)": {
        "details": "Gets the owner of the specified token ID.",
        "params": {
          "tokenId": "uint256 ID of the token to query the owner of"
        },
        "returns": {
          "_0": "address currently marked as the owner of the given token ID"
        }
      },
      "safeTransferFrom(address,address,uint256)": {
        "details": "Safely transfers the ownership of a given token ID to another address If the target address is a contract, it must implement {IERC721Receiver-onERC721Received}, which is called upon a safe transfer, and return the magic value `bytes4(keccak256(\"onERC721Received(address,address,uint256,bytes)\"))`; otherwise, the transfer is reverted. Requires the msg.sender to be the owner, approved, or operator",
        "params": {
          "from": "current owner of the token",
          "to": "address to receive the ownership of the given token ID",
          "tokenId": "uint256 ID of the token to be transferred"
        }
      },
      "safeTransferFrom(address,address,uint256,bytes)": {
        "details": "Safely transfers the ownership of a given token ID to another address If the target address is a contract, it must implement {IERC721Receiver-onERC721Received}, which is called upon a safe transfer, and return the magic value `bytes4(keccak256(\"onERC721Received(address,address,uint256,bytes)\"))`; otherwise, the transfer is reverted. Requires the _msgSender() to be the owner, approved, or operator",
        "params": {
          "_data": "bytes data to send along with a safe transfer check",
          "from": "current owner of the token",
          "to": "address to receive the ownership of the given token ID",
          "tokenId": "uint256 ID of the token to be transferred"
        }
      },
      "setApprovalForAll(address,bool)": {
        "details": "Sets or unsets the approval of a given operator An operator is allowed to transfer all tokens of the sender on their behalf.",
        "params": {
          "approved": "representing the status of the approval to be set",
          "operator": "operator address to set the approval"
        }
      },
      "supportsInterface(bytes4)": {
        "details": "See {IERC165-supportsInterface}.     * Time complexity O(1), guaranteed to always use less than 30 000 gas."
      },
      "transferFrom(address,address,uint256)": {
        "details": "Transfers the ownership of a given token ID to another address. Usage of this method is discouraged, use {safeTransferFrom} whenever possible. Requires the msg.sender to be the owner, approved, or operator.",
        "params": {
          "from": "current owner of the token",
          "to": "address to receive the ownership of the given token ID",
          "tokenId": "uint256 ID of the token to be transferred"
        }
      }
    }
  },
  "userdoc": {
    "methods": {}
  }
}